:020000041000EA
:1000000000B5324B212058609868022188439860DF
:10001000D860186158612E4B002199600221596106
:100020000121F02299502B49196001219960352056
:1000300000F044F80222904214D00621196600F024
:1000400034F8196E01211966002018661A6600F04E
:100050002CF8196E196E196E052000F02FF8012189
:100060000842F9D1002199601B49196000215960AB
:100070001A491B48016001219960EB211966A021F2
:10008000196600F012F800219960164914480160C1
:100090000121996001BC002800D000471248134993
:1000A000086003C880F30888084703B5996A0420EC
:1000B0000142FBD001200142F8D103BD02B5186610
:1000C0001866FFF7F2FF186E186E02BD00000240BE
:1000D000000000180000070000035F00212200005C
:1000E000F4000018222000A00001001008ED00E03C
:1000F00000000000000000000000000074B24E7A12
:1001000000200420F7010010CB010010CD010010E9
:10011000C9010010C9010010C9010010C901001077
:10012000C9010010C9010010C9010010CF01001061
:10013000C9010010C9010010D1010010D301001045
:10014000C1010010C1010010C1010010C101001067
:10015000C1010010C1010010C1010010C101001057
:10016000C1010010C1010010C1010010C101001047
:10017000C1010010C1010010C1010010C101001037
:10018000C1010010C1010010C1010010C101001027
:10019000C1010010C1010010C1010010C101001017
:1001A000C1010010C1010010C1010010C101001007
:1001B000C1010010C1010010C1010010C1010010F7
:1001C000EFF30580103800BE00BE00BE00BE00BECA
:1001D00000BE00BEF2EB8871604000107C40001051
:1001E0003802001090A31AE71E481F49086006C88D
:1001F00081F3088810471D480068002801D019487D
:10020000F3E70DA40ECC002902D000F012F8F9E7B4
:100210001749184A002000E001C19142FCD116495B
:100220008847164988471649884700BEFDE701C937
:1002300001C29A42FBD370477C400010C0000020EE
:1002400000060020BC45001000000420000004202F
:10025000BC45001000100420001004200000000025
:10026000704700000000000008ED00E0000000D032
:1002700000060020100B00202D300010E9040010B3
:10028000ED2F0010F8B5C04606480749091A8B1033
:10029000C90FC91810B5491003D0044B002B00D06A
:1002A000984710BD00060020000600200000000056
:1002B000054B10B5002B03D00449054800E000BFF2
:1002C000FFF7E2FF10BDC04600000000B4080020A8
:1002D000DC35001010B50268136F1B0702D51069DA
:1002E000C0B210BD034B044AB2210448FF3102F0F2
:1002F00081FEC046E03500109C3E0010083600101C
:1003000010B50268136F9B0701D5116110BD034B37
:10031000034AE0210348490002F06CFE64360010F5
:10032000883E00100836001070B5544B1B68DE6A1A
:10033000730724D4B30551D5514B1A69022A47DDFE
:1003400099780F230B400B2B00D17EE02ED8092B80
:1003500066D025D8062B33D0082B36D1032A34DDBE
:10036000474BDB780F2B30D8464A9B009A58444BBA
:100370005A6105229A6128E04048FFF7ABFF3F4BE6
:100380001B689B6F002BD5D03D4B1C690F2CF3D8FD
:100390001D00631C2B613948FFF79CFF2855EEE7D1
:1003A0000A2B12D1364B00229A610EE00E2B52D04E
:1003B0000F2B56D00C2B08D1314B00229A6104E050
:1003C0002F4B314A5A6102229A612D4B0022DA6189
:1003D0002B4B00221A61294B1B681B6EB6060FD5EA
:1003E000274AD369926993423FDA254A5169581CDA
:1003F000D061C95C214C2000FFF782FF23681B6D90
:10040000224B1B78002B0AD0204B00221A70D023DD
:100410001B068022D2029A62802212035A6270BDA9
:10042000072AD2DD164BDB780F2BCED8154A9B005E
:100430009A58134B19795170597991709979D170F3
:10044000D979117100229A61BFE70D4B104A5A61A8
:1004500009229A61B9E70A4B0B4A5A6102229A6152
:10046000B3E7074B00229A61AFE7044CFF2120005D
:10047000FFF746FF23681B6DC2E7C046F00500206A
:10048000EC0A00204805002044050020B5050020A6
:1004900038050020F0B5C64600B5C0B08046EFF381
:1004A000108772B68021802464034901200003F084
:1004B00063F86E4680256D002A000021684601F031
:1004C00093FC434633702A006946200003F044F849
:1004D00087F3108840B080BCB846F0BD014B187857
:1004E0007047C0460000101070B5122000F092F85E
:1004F000D02424068023DB026362132000F08AF8F4
:1005000080231B03A362142000F084F880235B0384
:10051000A362224C2249200002F07EFF0321012029
:1005200000F044F80321002000F040F800220121EF
:10053000002000F055F800220121012000F050F8C1
:1005400050220121200002F091FF1649172000F0EF
:100550001BF92368892292001A631A6D1B6E012110
:10056000172000F0FFF8FFF7B9FF04000138C0B210
:10057000FD280DD80C4B5C702500642000F0BEFCFB
:10058000094B5C78AC42F8D02000FFF783FFF3E71B
:100590007820FFF77FFF7824ECE7C046F0050020C5
:1005A000A086010029030010A805002010B58300D3
:1005B000084A9A18126840245440C0222240064C2F
:1005C000A44663441A60C000044B9C4660444160EA
:1005D00010BDC04604C0014004D0014000400140AD
:1005E00080000B4B9C46604400290ED00823002A53
:1005F00000D004221343026853400C22134080228F
:10060000520194466044036070470023EFE7C04600
:1006100004C0014010B501238340D022120693622A
:1006200093610521FFF7C2FF10BD00000FB400B5B4
:1006300083B0084802F000FE049B002B07D005A9F8
:100640000191180002F008FE034802F0F5FD0120B8
:1006500002F0CAFC8C3600109C360010EFF31080BC
:1006600072B6034B1B68002BFBD0BFF35F8F704744
:100670002C0100D0BFF35F8F024B00221A6080F381
:10068000108870472C0100D070B505000C001600D2
:10069000FFF7E4FFE308EA189446E95C07222240EA
:1006A000012393400B4206D1DBB20B436246137029
:1006B000FFF7E0FF70BD21003000FFF7B7FF00003B
:1006C000054A1078431CDBB21370172B02D91300B4
:1006D00010221A707047C046B6050020002307E0BC
:1006E000054A9A189200BFF35F8F00211160013311
:1006F0001F2BF5D97047C04640000034074B9B685C
:10070000103080001950BFF35F8FBFF35F8F044B31
:100710000021196082F310887047C04600ED00E0A8
:10072000240100D00048704700E400E010B5FFF756
:10073000F9FF002302E0034A04C00133072BFAD972
:1007400010BDC04680808080002A05D0044BC022A6
:100750005200995019607047014A8023D150FAE73E
:1007600000E100E010B50A001F2303400121994079
:100770004009FFF7E9FF10BD024B9B681030800075
:10078000C058704700ED00E070B505000E00EFF3B3
:10079000108472B60C4B1B68002BFBD0BFF35F8F2D
:1007A0002800FFF7E9FF094B984201D0B04205D17C
:1007B000220031002800FFF7A1FF70BD044B054A5D
:1007C0000548ED2102F016FC240100D0C101001003
:1007D00004370010B03E0010B8360010024B9C46A3
:1007E00061448900016070474000003410B5040086
:1007F000FFF766FF01002000FFF7F0FFFF232371E2
:10080000BFF35F8F10BD10B50400FFF759FF010063
:100810002000FFF7E3FFFF23237100236371BFF381
:100820005F8F10BD10B50D4C09E00D4B0D4A0E4801
:100830001A2102F0DFFB2000FFF7D8FF08340B4B32
:100840009C4209D22368002BF5D0012BEDD120006A
:10085000FFF7D9FF0834F2E710BDC046F8050020C5
:100860003C370010F03E00105C37001000060020FE
:1008700030B5836A9C46D41A0B1D9B001B586546F5
:100880005B1B9C4204D3046A01238B40234202D1A8
:10089000043189000A5030BD00040843704700004D
:1008A0000A4B1968EFF3108372B60A68002AFCD06D
:1008B000BFF35F8F054A1268BFF35F8F002111609D
:1008C00083F3108840BF002000217047E80A002011
:1008D000F0B5DE4657464E464546E0B583B0EFF3E9
:1008E000058303221A4011000192AF4B9200D358A6
:1008F00098461B788B4207D10123019A93400093BD
:10090000AA4B009A1A601FE1A94BAA4AAA48922151
:1009100002F070FB43465A694B465B004B44DB00D8
:1009200093469B445B469E68DF68A44800F0AAFBA0
:10093000801BB941002900DA10E1002F61DB5B4622
:100940001C699F4B9C4247D043460820185E5B467B
:10095000598889B2FFF7A0FF5B465969A047040098
:100960000D0023002B434CD0002D3EDA300039001F
:10097000001BA9415B469860D96000241C5F002CD5
:1009800000DAEBE043465A69924663001B19DB002C
:1009900053449A68DB6805000E00AD1A9E41002E94
:1009A00000DADBE043461C8147460837BC46002C92
:1009B00021DB634600229B5E5D00ED18ED0055448F
:1009C000AA68EB6806000F00B61A9F41002F12DBE1
:1009D000AC460023EC5EEAE75B465C6923692000D5
:1009E000984700280DD030CCBBE7744800F04AFB94
:1009F00000196941BEE75B461C804B466246138086
:100A0000ACE05B4600229B5E424613811269EFF325
:100A1000108372B611680029FCD0BFF35F8F424685
:100A20000221525E59460A80424649465180126967
:100A3000BFF35F8F0021116083F310888EE043467F
:100A40001969EFF3108372B60A68002AFCD0BFF36D
:100A50005F8F4246928812B291460122524241462D
:100A60008A800A69BFF35F8F0021116083F31088C9
:100A70001CE09B4600229A5E002A0EDB5B460021AA
:100A8000595E4B005B18DB0053449868D968260018
:100A90002F00361A8F41002FEBDA4B4659460B8058
:100AA000634600215B5E994663461A804B46002BE5
:100AB0005ADB43465A6992464B465B004B44DB0087
:100AC0009C46D44463469C68DD6846460836B34677
:100AD000434608229A5ECFE700234246937141467F
:100AE000083143460820185E11E001225242D31714
:100AF000A260E360434608229B5E834206D00D80DD
:100B0000434608229B5E2380434618812800431CED
:100B10002ED043465A6943001B18DB00D418D55E1B
:100B200063881BB2002BE0DB2100EFE722002B00E3
:100B300001992248FFF79CFE204800F0A3FA241AEE
:100B40008D41002D28DC25D01C4B009A5A6343466A
:100B500008229B5E9946002B00DBDBE643469B8820
:100B60001BB2002B00DB6AE743469B79002BB3D115
:100B7000434608229A5E002A0EDB43465969530019
:100B80009B18DB00CB189C68DD68631CCED16B1C06
:100B9000D2D0CBE7002CD7D040BF03B0F0BCBB46CF
:100BA000B246A946A046F0BDCC0800203C700540E6
:100BB000F43700101C3F00102038001000400540A2
:100BC000D108001070B504000D0011000126AE40E0
:100BD00006622800FFF7D8FD01212800FFF7C2FDBB
:100BE000024B9C466444266070BDC046382000001D
:100BF000F8B504000F0016001D00C160FFF760FD8E
:100C0000124B9C466044800020612670ABB2638129
:100C1000D022120612786270012252422281A280F2
:100C20009B186380002306E0581E61695A00D218A1
:100C3000D20088520133AB42F6D3054BB200D450F8
:100C4000044A31003800FFF7BDFFF8BD4000003412
:100C5000CC080020D108001010B5064B1B69002BF2
:100C600001D0044810BD044B044A0548652102F038
:100C7000C1F9C046B805002064380010043F0010D8
:100C800020380010F8B504000569EFF3108072B643
:100C900029680029FCD0BFF35F8F0221665E656979
:100CA00071008919C9006D18002E02DB0027E95F69
:100CB00061802169BFF35F8F00270F6080F3108888
:100CC000002E2CDB0699296107996961AA60EB6007
:100CD0006B8801335B04590C002B00D10121698022
:100CE0003000FFF7D9FD2169EFF3108372B60A686F
:100CF000002AFCD0BFF35F8FA2882A80A6802269D9
:100D0000BFF35F8F0021116083F31088E3682178BF
:100D100001228A4003498C4663441A60F8BD0120D1
:100D20004042FBE73C20000070B582B00600140092
:100D30001D0008AB1B78002B07D100F0B9F9220089
:100D40002B00121A8B41002B0ADB079B0193069B99
:100D5000009322002B003000FFF794FF02B070BD1B
:100D60000020FBE7F0B5C64600B584B080460F0012
:100D700016001D000AAB1C78FFF76EFF0294019568
:100D8000009642463B00FFF7CFFF04B080BCB84658
:100D9000F0BD000030B504000A1443899A4230DAED
:100DA000406953009B18DB00C31822699446EFF397
:100DB000108272B6604600680028FBD0BFF35F8FD8
:100DC000588885B20904090C884212D00020236992
:100DD000BFF35F8F0021196082F31088002811D0C3
:100DE000E368217801228A4007498C4663441A60EF
:100DF00008E00649294389B259800123A3710120E3
:100E0000E5E7002030BDC0463C2000000080FFFF29
:100E100010B50400FFF720FF2100FFF7BBFF10BD56
:100E2000F0B583B006000F00EFF30583002B1AD155
:100E300006246442E517A4197D418D4202D803D1EE
:100E4000844201D90024002500F032F922002B0051
:100E5000121A8B41002B0BDC08D03000390000F057
:100E60002FF903B0F0BD1648FFF7E0FB002AF4D0DD
:100E7000144A0023009320002900FFF773FF002885
:100E800013DAEAE7104B1968EFF3108372B60A68B9
:100E9000002AFCD0BFF35F8F0B4A1268BFF35F8F4D
:100EA0000021116083F3108820BF084B5B6A9D42CC
:100EB000E8D80649896AA142CFD29D42CDD1E1E767
:100EC00088380010A1080010E80A00200040054002
:100ED00070B504000D0000F0EBF822002B00121892
:100EE0004B411000191E02DBFFF79AFF70BD012075
:100EF00040420149F8E7C046FFFFFF7F10B5FA22E4
:100F000092000023002100F001FFFFF7E1FF10BD78
:100F1000F0B585B003900291EFF30583002B13D059
:100F20000B00414A526A8A4209D33F49896A814289
:100F300008D29A4201D0012002E0002000E0002007
:100F400005B0F0BD0120FBE7FFF786FEC3681F0078
:100F50000678039A1400029A1500180000F092F81F
:100F600002000B00A41A9D412200311D8900C959BD
:100F7000091A0020A84211DC0ED020BF029A2A4B89
:100F80005B6A9A4234D82849896A0398814231D2EF
:100F90009A422BD00120D3E79142EED9234A002375
:100FA0000093039D2800029C2100FFF7DBFE002830
:100FB00022DD02990D001C4B5B6A994206D81A4A41
:100FC000926A039CA24202D2994200D120BFFFF74D
:100FD0001FFF154B5B6A9D4222D8134A926A039801
:100FE00082421FD29D4219D00120A9E70020A7E725
:100FF0000020A5E70120A3E70B4B5B6A9C4209D8C0
:101000000949896AA94207D29C4201D0012097E789
:10101000002095E7002093E7012091E700208FE76B
:1010200000208DE701208BE700400540A10800105B
:10103000004870470040054010B50B4B1B69002B62
:1010400004D00A480A21FFF7C9FB10BDFFF7F0FFE3
:101050000400032100F00CF80348102303222100B0
:10106000FFF7C6FDEDE7C046B8050020E80A0020FE
:1010700010B5024A0248FFF707FB10BDD838001030
:10108000800800200200436A906A1900536A99425E
:10109000FAD17047416A00E0416A9942FCD300E00E
:1010A000416A994202D1816A9142F9D370470000A6
:1010B00010B50248FFF7E6FF10BDC04600400540EE
:1010C00010B502000B000248FFF7E4FF10BDC04658
:1010D00000400540F8B5CE46474680B505000E00F5
:1010E0009046994644002418A400284B9C4664442A
:1010F0006368089A934200D262602F1FFFB2012FEB
:101100002ED980221201C0239B01E3181A60204BC4
:10111000AA00D158002907D0586900F061FA0130BF
:1011200043001B18033BFDD243465B01226853403A
:10113000E022134080225201A2181360012F1AD915
:1011400080239B01E318802212011A60089B6360D0
:101150000F4BAD004A46EA50C0BCB946B046F8BD98
:10116000012ECED10322C0239B01E3181A60A3688D
:10117000DB07FCD5D8E72168714003230B401360DF
:10118000A3680122B2401A42FAD0D9E70080004099
:101190008408002070B582B006000D00140018000D
:1011A000069900F01DFA0300069A11020091220030
:1011B00029003000FFF78EFF02B070BD10B582B07D
:1011C000802464000094FFF785FF02B010BD00008A
:1011D000014B8000C058704784080020F0B5C64617
:1011E00000B504000E0017001D00374800F0F8F9A4
:1011F0008046364BFA18364B9A4239D801003800EF
:1012000000F0EEF90200103A98235B009A4235D8BC
:101210006B1E062B38D8069B013B062B34D83F09A2
:10122000474537D32D04069B1B031D432368002B22
:1012300036DB284B9C4244D00C2201239340264AA3
:101240001360264A1360264A1268190091430A1E49
:10125000F9D12660A060234BE31821321A6022687E
:10126000002AFCDAE56008221A6080BCB846F0BDAE
:101270001D4B1E4A1E48112101F0BCFE1D4B1B4A8E
:101280001B48192101F0B6FE1B4B184A18481C21B7
:1012900001F0B0FE194B154A1548232101F0AAFEB2
:1012A00022683F231340B342C3D1A3681B051B0D23
:1012B0008342BED1E368EE22D2021340AB42B8D1E2
:1012C000D3E70D22B9E7C046001BB70080E84BD337
:1012D00080F8A93200C0024000E0004000F0004069
:1012E00008C0004004300000FC380010343F0010FB
:1012F0004C39001098390010B4390010003A001031
:1013000080239B000B43014AD36270470080054055
:1013100010B5010018231B8814221088984710BDAF
:1013200010B5010018231B8816221088984710BD9D
:10133000F0B5C64600B507000E000025012398460B
:1013400000E00135B5420AD2AC003C192068FFF735
:10135000DFFF20600028F4D100239846F1E74046E3
:1013600080BCB846F0BD0000074BAA2212011A60EB
:101370008D225200DA60054B054A1A60024B5B6809
:10138000002BFBDA7047C04600400240006002407C
:1013900000B0FA0010B5040001E008CC9847024BF9
:1013A0009C42FAD310BDC046D435001070470000EF
:1013B00010B50248FFF7EEFF10BDC046983500108B
:1013C000054B064A1A60064B064A1A60064B1A6815
:1013D000044B9343FAD1704700E00040BFCDFBFEC1
:1013E00000F00040FE7F3C0008C00040044BDB6C76
:1013F000002B03D1034B8022D2021A607047C046F3
:10140000000011504C201150044B054A1A60054B46
:101410001B68DB43DB01FAD17047C04600F0004097
:10142000FFFFFF0108C00040034B40229A675A6744
:101430001A67DA667047C04600F0014010B5FFF742
:101440004DF910BD10B50C4A0C4BD21A9210140075
:10145000302A00D9302292000948084900F0CAFC1D
:1014600004E0084A064BA100CA5001342F2CF8D9D9
:10147000034B054A936010BDC0010010000100102D
:1014800000000020C101001000ED00E070B5042054
:10149000FFF79EFE064900F0A3F805000024002C8B
:1014A00000DD70BDE0B22900FFF72AFF0134F6E746
:1014B00040420F0030B583B0274B00229A67FFF7F8
:1014C00053FF264B01221A60234B5B6C012BFBD18F
:1014D000234B03221A60204B9B6B012BFBD1013362
:1014E000009304331F4A01211F48FFF777FE0523AD
:1014F00000931E4A01211E48FFF770FE1D4B00227B
:1015000002210420FFF75AFE1B4D2B00002201216F
:101510000520FFF753FE194C23000022002107206D
:10152000FFF74CFE2300002200210820FFF746FEB3
:101530008023DB0000932300002200210920FFF715
:1015400029FE2B00002200210620FFF737FEFFF7BF
:101550009DFF03B030BDC046008000403CB000405D
:1015600030B00040002F685900800240008C864750
:1015700000C00240001BB70040597307006CDC023A
:1015800001480421014B1847D005002031130010F9
:10159000124A936F9B0815D29066D166002905D038
:1015A000FFE7FFE7FFE7516F106F704704B5802139
:1015B0000906C2175140002800D0C84301F0D4FFEB
:1015C000002104BDF0B5146E556E576F166FFFF70E
:1015D000E3FF1466556657671667F0BD000000D03C
:1015E000114A936F9B0813D210665166002905D0EB
:1015F000FFE7FFE7FFE7516F106F704704B5002862
:1016000001D00020C04301F0AFFF002104BDC0465F
:10161000F0B5146E556E576F166FFFF7E5FF146641
:10162000556657671667F0BD000000D094464A4AD9
:10163000926F9208624601D228E0C046F0B5464E4D
:10164000346E756E776F366F00F020F89446424A1C
:1016500014665566576716676246F0BD94463E4A63
:10166000926F9208624601D254E0C046F0B53A4EFD
:10167000346E756E776F366F00F04CF89446364ACC
:1016800014665566576716676246F0BD002B24DB6B
:1016900011D000293EDA00B5C943404200D10131E2
:1016A00000F038F8C943404200D10131DB435242D7
:1016B00000D1013300BD002AEBD1002801D100295F
:1016C00005D00020C90FC90701D1C043410800B5AA
:1016D00001F03AFF0022002300BD00B500290ADB1B
:1016E000DB43524200D1013300F014F8C9434042B9
:1016F00000D1013100BDC943404200D10131DB437B
:10170000524200D1013300F005F8DB43524200D1D0
:10171000013300BD002923D1002B18D1002A0CD0A1
:10172000BC460D4F38667A6600210023FFE7FFE7CD
:10173000FFE77A6F386F67467047002801D0074887
:10174000010000B501F000FF0022002300BD0200EF
:101750000B00002000217047000000D0FFFFFFFFBA
:10176000002B00D0BFE0130C28D1002AE7D080B4B2
:10177000114F39667A66FFE7FFE730B4040C7B6FE0
:10178000396F1B0423433B667A66FFE7FFE7FFE7F9
:10179000C04684B27B6F3D6F1B0423433B667A6671
:1017A000FFE7FFE7C04600232C042D0C7A6F386F4B
:1017B00000196941B0BC7047000000D0F0B59446F4
:1017C0000025140E01D112020835140F01D11201A7
:1017D0000435940F01D192000235D40F01D152008B
:1017E0000135D40B0134254F7C66254C3C660E0C2C
:1017F00093B2FFE7FFE7FFE73C6F6643360C7703E2
:10180000BE467343DF0B5B04C01AB941130C73432C
:10181000DB18C91ACE086643360CB64493B273433C
:101820001F0F1B01C01AB941130C73431F0B1B057B
:10183000C01AB941860D8F023E436643360C092D0E
:1018400024DB520A7243801A7703460A6643360C39
:1018500016235B1BDE40DF40BF1964466643821BD4
:101860007046043506330100D940A840C01900D3A2
:101870000131A24206D20023F0BD0000000000D0DA
:10188000FFFFFFFF121B0130F3D3F1E709277F1B96
:10189000FE406446A2B27243801A00D20139220C83
:1018A0007243130C1204821A99410B0070460435DE
:1018B00013370100F940A840801900D30131002BF3
:1018C00002D1A2420AD2F0BD013000D30131121B75
:1018D000FAD2013BF8D1A24200D2F0BD013000D3D0
:1018E0000131121BF7E7F0B51C0C00D080E00CB4FE
:1018F00000251C0A04D11B02160E334312020835C0
:101900001C0B04D11B01160F3343120104359C0B31
:1019100004D19B00960F334392000235DC0B02D1B9
:1019200092185B4101351C00971864410134464F01
:101930007C66464C3C660E0CFFE7FFE7FFE7C046BF
:101940003C6F6643360C7703BE4697B27743C01BA5
:1019500000D20139C01B00D201399FB27743C91BA5
:10196000C91B170C77437E04FF0B801BB941CE08BF
:101970006643360C0C2D33DBB644120B1F053A437D
:101980001B0B97B27743C01B00D201399FB277433C
:10199000C91B170C77433E043F0C801BB941860DD1
:1019A0008F023E43664329277F1BFE400C3D77464E
:1019B000AF40BF1930BCA2B2ABB272437343801ABE
:1019C0009941220C7243130C1204801A99410200AF
:1019D0000B000137001BA941F9D2781E0021F0BD90
:1019E0000C277F1BFE4077467F0BAF40FF19E0E7D7
:1019F00000245D1C07D0144F7D663966FFE7FFE7C2
:101A0000FFE7FFE73C6F95B29EB265436643401B1C
:101A1000B141150C1E0C6543664336042F0C3E4342
:101A20002D04401BB141994204D202000B0020005A
:101A30000021F0BD01D19042F7D3801A99410134C1
:101A40009942F2D3F6E70000000000D0FFFFFFFF4D
:101A500048404140484018B4134B5B68019308BDAF
:101A600018B4114B1B68019308BD94460F4A926F3E
:101A7000920805D2624618B40B4BDB68019308BD8F
:101A80000A4AF0B5146E556E576F166F6246FFF72F
:101A9000F2FF064A1466556657671667F0BD18B41C
:101AA000014B9B68019308BDE4080020000000D0B2
:101AB000FFB550404240504059404B40594000E033
:101AC000FFB5154F4C00640D03D0BC4204D10C038C
:101AD00014D80020090D09055C00640D03D0BC4238
:101AE00004D11C030AD800221B0D1B0501264B4004
:101AF00009D44B4003D58B4200D18242FFBD9942AD
:101B0000FCD19042FFBD0B43DB1803431343F5D0D8
:101B1000C9434918FFBD0000FF07000000B5FFF7EB
:101B2000CFFF804100BDC04600B5FFF7C9FF01D916
:101B3000002000BD012000BD00B5FFF7B9FF01D9AD
:101B4000002000BD012000BD00B5FFF7B1FF8041BE
:101B500000BD012040054A00121804D85A0012188E
:101B600001D80020704701207047000000210028A4
:101B700005D17047C1174840401AFAD0C90713B5BC
:101B8000064B1B6898470CBC441CA2401005120B66
:101B90000349091B09051943114310BDE40900203D
:101BA0001F04000010B54C00620D8023D218DB002A
:101BB000D21A5B057E2A10DD9E3A13DACC17090390
:101BC000490819435242D140640001341532202A99
:101BD00005DAD0400843604310BD002010BD084620
:101BE000604310BDC80FC018013810BD18B4024BB7
:101BF0005B6A019308BD0000E408002010B50148AD
:101C0000FEF714FD1C3A001070B513231C78012C4C
:101C100012D0012C12DC214B214A93642148FFF79A
:101C200077FB214B186070BD20491D4A98008150F8
:101C300001331F2BF8D9ECE70023FAE71C48FFF724
:101C40006FFB05001B48FFF76BFB023803789B0016
:101C50007F2B09DD12488022290000F0CBF8022CEE
:101C600008D0022CDADCD6E7134B144A144833218F
:101C700001F0C0F9134B1A88B5231B029A4209D10F
:101C8000114B1A88114B9A4204D1114B1A88114BEF
:101C90009A42E6D00020FEF7C9FCC046D91C0010CD
:101CA000E40800204C330000E4090020FD1B001074
:101CB0005344000053460000343A0010403F0010E7
:101CC000783A001054380000D83800004946000027
:101CD0009C3800005946000007B56046002800D136
:101CE00000BE01880A0A0230DF2AFAD1C9B282088E
:101CF00004D3028840880004104300E00068024AD0
:101D00005050039007BD0000E408002051434343B6
:101D1000C9188C46110C83B24B4310B4040C6143B8
:101D200092B280B2504362431C041B0C001910BCD9
:101D300059411304120CC01851416144704700000E
:101D400010B50148FEF772FCDC3B001070B51323A0
:101D50001C781948FFF7E4FA0500012C12D0012C79
:101D60000ADD2B00023B1B789B007F2B1EDD1348F6
:101D70008022290000F03EF81148FFF7C9FA114B04
:101D8000186070BD0D485422290000F033F800237C
:101D900000E001331F2BE2D8084A99008A58002A34
:101DA000F7D10949054A98008150F2E7074B084AE4
:101DB0000848422101F01EF953460000E8090020BE
:101DC0004C330000E4090020411D0010D43A0010FB
:101DD000543F0010083B001001480421014B1847F4
:101DE000E005002031130010014B1B68184700006C
:101DF000E0050020014B5B6818470000E00500206B
:101E0000704710B5002802D00B684968984710BD8C
:101E10000100002007E083001B185B00501C0860D5
:101E20001078C01830380A681378303BDBB2092BC1
:101E3000F1D97047F0B5D6464F464646C0B50500C5
:101E40000E00100091461F00099C0B9B02221100FE
:101E500019408A461A4234D1DB0716D50200B8462B
:101E600037002E001FE0551C330041462020B847A4
:101E700001342A000A9B9C42F5D33D0037004646B8
:101E8000099CB84637002E000DE00200B0463E0027
:101E90002F000994EEE7013C551C089B185D434652
:101EA0003900B0472A00002CF5D135003E004746E6
:101EB0005346002B16D11000E0BCBA46B146A846E6
:101EC000F0BD0200B84637002E00ECE7541C33008A
:101ED00029002020B84722004B46D31A0A998B428A
:101EE000F4D3E8E73B002F0035001E00F4E7F0B51F
:101EF000CE46474680B585B006000F00904699460D
:101F00000C9A0D9B0EA909788C46109D119C129974
:101F100088071CD4002C0CD0C8070AD560460028BE
:101F200002D10C30084204D0013C02E03020D054F1
:101F30000133AB4201D21F2BF8D9C80707D5A34202
:101F400005D21F2B03D83020D0540133F5E7C80643
:101F500012D5480505D4002B03D0AB4223D0A342B1
:101F600021D00F98102831D00F98022838D01F2B7D
:101F70000AD83020D05401331F2B05D860460028E2
:101F800034D02D20D0540133039102940193009258
:101F90004B46424639003000FFF74CFF05B0C0BC4D
:101FA000B946B046F0BD581E012B17D00F9D102D1D
:101FB0000BD003000F981028D6D18806D4D51F2B3C
:101FC000D2D85820D0540133D1E7023B8806F1D44F
:101FD0001F2BEFD87820D0540133C8E70300C0E7A7
:101FE0001F2BD1D86030D0540133C0E7480703D548
:101FF0002B20D0540133C7E70807C5D52020D05483
:102000000133C1E7F0B5DE4657464E464546E0B5DA
:1020100093B08046894692469B461CAB10CB1B78FA
:1020200009931E9D002C03D11023219A9A432192DB
:102030008023DB00219E1E40219A1A4218D0002CDA
:1020400022D0002614E0219A92061BD54121C918FE
:10205000C9B20A39C9B2771C0AAB995529002000C8
:10206000FFF7BEFAAC4210D31F2F0ED83E0004007B
:1020700029002000FFF7B4FACBB2092BE3D83033A4
:10208000D9B2E8E76121E2E72700219B0693209B74
:1020900005931F9B04930395099B029301970AAB39
:1020A00000935B46524649464046FFF720FF13B077
:1020B000F0BCBB46B246A946A046F0BDF0B5DE4630
:1020C00057464E464546E0B595B08346089109927D
:1020D0000A931E9B99461F9F20AB1B780B93229B54
:1020E0009846239C4B463B4303D11033269A9A4390
:1020F00026928023DB00269D1D40269A1A4208D096
:102100004B463B4339D000254E4623002C001D0092
:102110001FE04E4623002C001D001AE0269A92066E
:1021200023D54122D218D2B20A3AD2B2631C9A46BF
:102130000CAB1A5542462B0030003900FFF78EFADF
:10214000BD421CD813D053461F2B14D8544606004A
:102150000F0042462B0030003900FFF77FFAD3B260
:10216000092BDBD83033DAB2E0E76122DAE7B04599
:10217000E9D9564604E0564602E0002600E05646FD
:10218000269B0693259B0593249B04934346039328
:102190000B9B029301960CAB00930A9B099A08993A
:1021A0005846FFF7A4FE15B0F0BCBB46B246A946A0
:1021B000A046F0BDF0B5DE4657464E464546E0B572
:1021C00095B004008A46934699461E9E1F9F320092
:1021D0003B0030003900FFF7BCFC002800D0FBE0DA
:1021E00001225242D64B30003900FFF7ADFC0028E7
:1021F00000D0F1E001225242D24B30003900FFF70B
:102200008DFC002800D0E7E00022002330003900D8
:10221000FFF784FC002800D0F3E0069607978023A0
:10222000DB00229A1A401192229A1A4201D1062307
:1022300020930698079902000B000A920B93030063
:102240000A00024300D1E8E0080D4005400DBE4DF4
:10225000AC466044050007980203120B00200021E1
:10226000089009910893B94B134309932800FFF78D
:1022700081FCB74AB74BFFF712FCB74AB74BFFF7E1
:10228000EFFB0A900B910022B54B08980999FFF7D4
:10229000E2FBB44AB44BFFF702FC02000B000A98C1
:1022A0000B99FFF7DDFBFFF77DFC80460890FFF7F9
:1022B00061FCAE4AAE4B0A900B91FFF7F0FB002297
:1022C000AC4BFFF7CDFBFFF76DFC0500AA4AAB4B0B
:1022D0000A980B99FFF7E3FB0A900B912800FFF790
:1022E00049FCA74AA74BFFF7DAFB02000B000A984C
:1022F0000B99FFF7B0FB02000B000A900B91FFF760
:10230000CEFB0E900F912B009F4DAC4663440021F5
:1023100000220C910D921B050D9300230C930A983B
:102320000B9902000B00FFF79BFB129013910A9A86
:102330000B9B00208021C905FFF78DFB0A900B91B4
:102340000022924B0E980F99FFF78FFB0022904BC3
:10235000FFF786FB02000B000E980F99FFF785FB35
:1023600000228C4BFFF77CFB02000B000E980F99AC
:10237000FFF77BFB02000B000A980B99FFF770FB3D
:1023800002000B0012981399FFF76FFB00226F4BAE
:10239000FFF766FB0C9A0D9BFFF781FB02000B0019
:1023A0000A920B93069A079B0C900D91FFF7CCFBBA
:1023B00000280AD04346013B08930022744B0C9836
:1023C0000D99FFF752FB0A900B91089B6333C62BC4
:1023D00049D804231D0024E0229B0493219B0393EE
:1023E000209B0293009601974B465A465146200087
:1023F00000F004F915B0F0BCBB46B246A946A046B1
:10240000F0BD0021002206910792069680231B064C
:102410009C46BC446346079301E7002308930433BA
:102420001D00229B1B052BD50A9A0B9B19001143FB
:1024300011D0594A594B06980799FFF77DFB0028A0
:1024400000D1B1E00022564B06980799FFF766FBD2
:10245000002800D1A8E0209A089B9A4206DDD31AF2
:10246000013B209304E005231D00DAE700232093BD
:102470008023DB00229A1A43229200231D00089336
:10248000219A954200D39BE0531B98460223229A3F
:102490001A400C92229A134203D0002D01D000233F
:1024A0009846089B002B07D00A9A0B9B0698079921
:1024B000FFF7DBFA06900791002200233000390075
:1024C000FFF72CFB002800D07DE0364B229A13400A
:1024D000049343460393209B0293069A079B009222
:1024E00001934B465A465146200000F087F8002DD4
:1024F00000D17FE7229B9B0671D54527461C4B46A2
:10250000020051463800A0470898C317C2185A4025
:1025100005230593013D0495002303930A33029399
:10252000C30F019300924B46320051462000FFF743
:1025300069FD0C9B002B00D15CE70200219F56E057
:10254000FFFFEF7FFFFFEFFF01FCFFFF0000F03F09
:10255000FB799F501344D33FB3C8608B288AC63F92
:102560000000F83F61436F63A787D23F71A37909E9
:102570004F930A400000E03F1655B5BBB16B0240D7
:10258000EF39FAFE422EE63FFF03000000002C4028
:1025900000002440000018402D431CEBE2361A3F97
:1025A00080842E41FFF7FFFF209B002B00D167E7BF
:1025B000119B002B00D163E7209B013B20935FE739
:1025C0000023984662E7069E079F3200390080206C
:1025D0000006844661440B000692079375E7652761
:1025E0008CE7561C4B4651462020A04732005B46E4
:1025F000D31ABB42F5D31000FCE6C046F0B5DE4668
:1026000057464E464546E0B595B081468A469346C4
:102610000A93209F1E9A1F9B10001900FFF799FA3A
:10262000002831D101225242BA4B1E981F99FFF760
:1026300075FA002837D101225242B74B1E981F99D4
:10264000FFF782FA00283DD10022B44B1E981F9953
:10265000FFF77AFA00284AD10022B14B1E981F9941
:10266000FFF75CFA002842D1002200231E981F9930
:10267000FFF754FA00284AD100230B93229B5B05F5
:1026800000D4AFE0002452E0229B0393219B0293ED
:1026900003230193A34B00930A9B5A465146484695
:1026A000FFF7C8FB1FE1229B0393219B02930423A6
:1026B00001939D4B00930A9B5A4651464846FFF7AB
:1026C000B9FB10E1229B5B070ED5984B042222999F
:1026D000039121990291019200930A9B5A46514617
:1026E0004846FFF7A7FBFEE0914B0322EFE7229B52
:1026F0000493219B039302971E9B1F9C00930194BC
:102700000A9B5A4651464846FFF754FDEBE01E9A95
:102710001F9B00200021FFF79EF91E901F910123AF
:102720000B93ABE70CAB30221A55013F01341F2C41
:1027300001D8092FF6D81E981F99FFF733FA050024
:10274000FFF718FA02000B001E981F99FFF783F994
:10275000784BFA009B180CCB08920993FFF79FF96E
:1027600006900791FFF742FA0600FFF7FFF9020013
:102770000B0006980799FFF76EF906900791002263
:102780006D4BFFF7E1F900282ED001363000FFF73E
:10279000EDF902000B0008980999FFF7C5F9002828
:1027A00001D001350026002F2CD12800FFF7E2F9D7
:1027B00002000B001E981F99FFF74DF906000F004D
:1027C00000225D4BFFF7AAF9002846D100225A4BA0
:1027D00030003900FFF7B8F900283ED1EB073CD5AF
:1027E00001353AE006274DE70022534B069807993A
:1027F000FFF794F90028D6D1002E01D0F307D2D5E7
:102800000136D0E7A8461F2C11D8013F0A2130001D
:10281000FEF7E6FE651C30310CAB19550A2130007D
:10282000FEF7DEFE092E0ED906002C00EBE745462A
:102830001F2C0CD87B1E002F09D00CAA302111555B
:102840001F000134F4E72B0045461C00F0E71F2C65
:1028500003D80CAB2E221A5501341F2C10D80A2194
:102860002800FEF795FE661C30310CAB19550A2185
:102870002800FEF78DFE051E01D03400EDE7340080
:10288000229B9B0719D4229BDB0716D5219B002B8B
:102890000ED00B9B002B03D10C33229A134207D08E
:1028A000219B013B219303E00CAB30221A550134EC
:1028B000219B9C4201D21F2CF6D91F2C06D80B9BC2
:1028C000002B17D00CAB2D221A550134229B0393F9
:1028D000219B029301940CAB00930A9B5A465146EC
:1028E0004846FFF7A7FA15B0F0BCBB46B246A9466A
:1028F000A046F0BD229B5B0704D50CAB2B221A55DA
:102900000134E3E7229B1B07E0D50CAB20221A55CC
:102910000134DBE7FFFFEFFFFFFFEF7F65CDCD4128
:1029200065CDCDC1C43B0010C83B0010B83B0010C2
:10293000C03B0010C03F00100000E03FF0B5DE4695
:1029400057464E464546E0B593B083468A46904684
:102950001193002900D11AE300255E46119B1878D7
:10296000002800D116E3252809D06C1C43462A0014
:102970005146B047119B013311932500EEE7013317
:102980001193002712E0202A25D0232A05D11022F6
:10299000174301331193012406E0002404E00222CE
:1029A0001743013311930124002C1CD0119B1A787A
:1029B0002B2A0AD0E7D92D2AF1D0302A11D12F3A6B
:1029C0001743013311930124EEE704221743013327
:1029D00011930124E8E708221743013311930124DE
:1029E000E2E70024E0E7119B1A781300303BDBB2EA
:1029F000092B15D92A2A18D00B94119B1A782E2A44
:102A000023D0119B1A786C2A47D03CD9742A62D003
:102A10007A2A65D1802252001743013311935FE077
:102A200011A8FFF7F5F90B90E7E71C9B1A1D1C9204
:102A30001B68002B04DB0B93119B01331193DCE724
:102A4000022217435B420B93F6E78022D200174322
:102A50005A1C11925A781300303BDBB2092B0BD968
:102A60002A2ACED11C9B1A1D1C921C68002C08DB44
:102A7000119B01331193C4E711A8FFF7C9F90400B2
:102A8000BFE70024F4E7682A17D06A2A28D18022F9
:102A9000920017430133119322E0802252003A43FF
:102AA000591C119159786C2901D0170018E0C022E7
:102AB000920017430233119312E080223A43591CCB
:102AC00011915978682901D0170009E0C0221743F5
:102AD0000233119304E08022520017430133119313
:102AE000119B1878652840D077D8462800D18BE014
:102AF0001BD9632831D102231A003A4091463B4248
:102B000000D1B0E101241C9B1A1D1C926F1C187887
:102B100043462A005146B0474B46002B00D0A6E161
:102B2000119B013311933D0018E7252809D16C1C36
:102B300043462A005146B047119B013311932500AB
:102B40000CE7452811D06C1C43462A005146B0477B
:102B5000119B01331193250000E763282BD85828D7
:102B60002BD0622829D04728EDD1672801D04728EB
:102B700002D180231B011F43452801D0472801D1E2
:102B800020231F431C9B0733072293431A0008325C
:102B90001C9204970B9A039202940CCB009201931F
:102BA00043462A0051463000FFF704FB0500119B05
:102BB00001331193D2E66428C5D178284DD0582826
:102BC00000D17CE06F2800D17CE0622800D17CE05D
:102BD00010239F43063B9C4641E0702800D1BCE196
:102BE0000DD9732831D11C9B1A1D1C921B689B4662
:102BF000002C00D06EE1012252425B464AE1672878
:102C0000B3D01DD866289ED1462800D11CE11C9B5C
:102C10000733072293431A0008321C9204970B9A39
:102C2000039202940CCB0092019343462A00514632
:102C30003000FFF7E3FC0500119B013311938DE693
:102C40006928BAD06F28B8D07DE7732800D27AE718
:102C50007528B2D07828B0D075E710239C46582844
:102C600036D0692803D0642801D00C2297437A0516
:102C700001D50122974369282DD064282BD0BA05AD
:102C800000D5A3E0FA0500D5BBE07A0600D4CDE07C
:102C90001C9A111D1C911168FF220A4005970B9B7D
:102CA00004930394634602930023019300924346E6
:102CB0002A0051463000FFF7A5F905002AE010234D
:102CC0009C46CCE708239C46C9E702239C46C6E7FE
:102CD00020221743C5E7BA0520D4FA0551D47A0655
:102CE00067D51C9A111D1C911168FF220A40D0174C
:102CF0001118414005970B9B04930394634602937C
:102D0000D20F0192009143462A0051463000FFF74E
:102D100079F90500119B013311931FE61C9A0732C4
:102D200007218A43110008311C91116853689946A4
:102D3000DB170C930D930C9A0D9B100048400E90DE
:102D40000D9B49464B400F930E980F990C9A0D9B83
:102D5000801A99410E900F9108970B9B0793069448
:102D600063460493002305934B46DA0F02920090CA
:102D7000019143462A0051463000FFF79FF90500B4
:102D8000C8E71C9A111D1C911268D01711184140F8
:102D900005970B9B0493039463460293D20F019211
:102DA000009143462A0051463000FFF72BF90500F9
:102DB000B0E73A0605D51C9A111D1C910023D25E7E
:102DC00095E71C9A111D1C91126890E71C9A073216
:102DD00007218A43110008311C9108970B9B079328
:102DE0000694634604930023059302930CCA009251
:102DF000019343462A0051463000FFF75FF9050072
:102E000088E71C9A111D1C9105970B9B0493039452
:102E100063460293002301931368009343462A00FC
:102E200051463000FFF7EEF8050073E73A0606D585
:102E30001C9A111D1C9112681204120C2EE71C9A88
:102E4000111D1C91126829E720231F43DFE6571C40
:102E5000434651462020B04723003A005C1C9D4267
:102E6000F5D815004FE601232A000B9DF6E73A003E
:102E7000B1460B9E06E0571C434651462020C847EA
:102E80002C003A00651CA642F5D817004E4647E6CE
:102E900001330A001978002902D0511E002AF7D107
:102EA0005A469B1A8022D2003900114089461742A7
:102EB00002D0A34200D92300022211003940109110
:102EC0003A4209D02A0025005F469B4633004E4611
:102ED000994621E0220090E62A005546A24606E0E7
:102EE000541C434629002020B0473B0022005F1CB1
:102EF0000B999942F4D85446AA463B0025005F46F8
:102F00009B4633004E46994606E01D000137541C8F
:102F100043465146C84722003878002804D0002E86
:102F2000F4D06B1E002DF0D115005B464E46109A72
:102F3000002A03D1119B013311930FE52A000B9F47
:102F400006E0551C434651462020B04723002A0086
:102F50005C1C9F42F5D81500ECE721233B431C9AEB
:102F6000111D1C91126805930823049303940833E0
:102F7000029300230193009243462A0051463000F9
:102F8000FFF740F80500119B01331193E6E40B4B6A
:102F90009B46E1E4B34645450DD343465A1E43469E
:102FA00051460020D847280013B0F0BCBB46B246BB
:102FB000A946A046F0BD2A00F1E7C046011E001058
:102FC00000B585B08C4602A9029060464860012099
:102FD000844604480093130062465242FFF7AEFC59
:102FE00005B000BD031E001000BEFDE710B5FFF7E1
:102FF000FBFF000010B582B084460C001900002AC7
:103000000AD0074B0748019200932300624600F064
:1030100043F90120FFF7E8FF034B1A00F2E7C0462F
:10302000D03B0010E03B0010DC3B001010B5EFF38C
:103030000583002B00D000BEFEF7BAF9034C01E077
:1030400008CC9847024B9C42FAD310BDD4350010EF
:10305000DC35001010B50300080011001B6898470C
:1030600010BD0000F8B507000D001600437D002BD1
:1030700002D0002400200CE00368110028009847CB
:103080002BE03B7D0FE03B68144802219847601C11
:103090000134B44213DA002CF3DD631EEB5C0D3B0C
:1030A0005A425341DBB22A5D0A2AF1D1002BEFD1FB
:1030B000A042E8DA3B68211A28189847E3E7B042B3
:1030C00003DA3B68311A28189847002E05DD013EC7
:1030D000AB5D0D3B5A4253413B75F8BD10400010AB
:1030E00070B505000368002B16D00C4B1C6805E07A
:1030F000290004C92000FFF7B5FF2469002C09D07E
:103100002368002BF9D0064B1B68002BF0D0A3429C
:10311000F3D1EDE700232B6070BDC046AC08002062
:10312000B008002070B505000C000B68802B05D09E
:1031300023685A1C2260E418257170BD0800FFF74F
:10314000CFFFF5E710B5FDF7B3FF074A00231218CC
:103150004B41002B03DB054800F016FA10BD01229D
:103160005242034BF7E7C04640420F00F8050020EB
:10317000FFFFFF7F10B5024800F0DEF910BDC0462A
:10318000F8050020F0B5CE46474680B583B08046AE
:103190000D0016001C00FFF7D5FF81466B1C05D003
:1031A000002C08D0184F194B1C6807E0404600F06F
:1031B00087F90500F4E7164FF5E72469002C16D0CF
:1031C0002368002BF9D0134B1B68002B01D0A342BE
:1031D000F3D12A0041462000B847002EEDD06B46BF
:1031E000D91D0A230B7001222000B847E5E74B46A2
:1031F000002B05D1280003B0C0BCB946B046F0BDD5
:10320000FFF7B8FFF6E7C04665300010AC080020B5
:1032100055300010B008002010B5064B1C6800E0C7
:103220002469002C04D06368002BF9D09847F7E795
:1032300010BDC046AC08002070B5050000F040F994
:1032400004000123012201002800FFF79BFFFFF784
:10325000E3FF200070BD0000F0B5A3B007000E0032
:10326000FFF770FF050001AC00230193094833000C
:103270003A002100FFF7A4FE06002000FFF730FF10
:10328000FFF7CAFF002D02D1300023B0F0BDFFF7D9
:1032900071FFF9E7253100100FB400B583B004A920
:1032A00001C90191FFF7D8FF03B008BC04B018476B
:1032B00010B5024800F004F810BDC046DC0800203C
:1032C00070B588B0040004AD0D2200212800FEF77F
:1032D0008BFD0D2200216846FEF786FD4B232B70E7
:1032E0000D226946280000F01FF9002304E05A1D52
:1032F00069468A5CE2540133072BF8DD08B070BDE3
:10330000074B98420AD0042301229A40054B1A60C9
:10331000054B1B6811009943FAD170470323F3E76B
:10332000F005002000F0004008C00040F0B5D6468F
:103330004F464646C0B504000D000520FDF748FF86
:10334000060068088019A8462900FEF749F9070019
:1033500043001A18914605211000FEF741F90500B7
:103360003A1A9246254B42469A4237D87000801945
:103370002349FEF735F9431CAA1E9A4235D3226829
:103380000021D166226810680431484002310140B2
:103390008020400184466244116022685146D16118
:1033A000226815624A464F2A25D92D092168A02294
:1033B0008D502268D16F4B401B041B0C11498C4669
:1033C0006244136023680122DA6639003000FEF798
:1033D00007F9E0BCBA46B146A846F0BD70008019B6
:1033E0000949FEF7FDF8431CC6E7084B084A09489F
:1033F0005D21FFF7FFFD0125D8E7C0463F420F00E2
:10340000809698007C10000040787D011C3E0010E2
:103410004C4000103C3E001070B504000D00114BF4
:1034200098421DD00422012393400F4A13602000CC
:10343000FFF766FF002323712268D36622686621A6
:10344000FF3111602268D363226893632268883356
:103450006339FF39D15029002000FFF767FF70BDA5
:103460000322E0E7F005002000E0004010B5140062
:1034700003680022DA66002913D001680B689C46B5
:1034800080239B00624653400C4A13408022520125
:10349000944661440B6003689C6003680122DA660D
:1034A00010BD0268136841214B4004490B40802144
:1034B00049018C4662441360EFE7C04641020000B8
:1034C000030084469B070BD00300032102E0013375
:1034D0000B4206D01A78002AF9D16246981A704732
:1034E000030019680C4A0D488A188A4302420FD11A
:1034F0005968094A04338A188A43024208D1596834
:10350000054A04338A188A430242F1D000E00133AD
:103510001A78002AFBD1E0E7FFFEFEFE8080808063
:10352000F8B5C0460000000001B40248844601BC62
:10353000604700BF3104002001B40248844601BC4A
:10354000604700BFBD01002001B40248844601BCB1
:10355000604700BF1505002001B40248844601BC45
:10356000604700BF6D03002001B40248844601BCDF
:10357000604700BF1505002001B40248844601BC25
:10358000604700BFA902002001B40248844601BC84
:10359000604700BF89010020C1130010ED13001027
:1035A00081150010D91D0010091C00104D1D0010C0
:1035B000B514001009140010291400103D14001057
:1035C000250800104514001039100010AD1300102C
:0C35D0002D070010B1320010B1020010F5
:1035E00068772D3E737461747573202620493243C9
:1035F0005F49435F5354415455535F52464E455FB4
:1036000042495453000000002F55736572732F6AAE
:10361000656E7961746F6B61727A686576736B79C8
:103620002F7069636F2F7069636F2D73646B2F73D5
:1036300072632F7270325F636F6D6D6F6E2F686192
:103640007264776172655F6932632F696E636C754E
:1036500064652F68617264776172652F6932632EC9
:103660006800000068772D3E7374617475732026BE
:10367000204932435F49435F5354415455535F548B
:10368000464E465F42495453000000000A2A2A2A47
:103690002050414E4943202A2A2A0A000A000000ED
:1036A00030783163203D3D20282A696E7374293EAD
:1036B0003E313175000000002F55736572732F6A1B
:1036C000656E7961746F6B61727A686576736B7918
:1036D0002F7069636F2F7069636F2D73646B2F7325
:1036E00072632F7270325F636F6D6D6F6E2F6861E2
:1036F0007264776172655F6972712F6972712E638E
:103700000000000063757272656E74203D3D205F9D
:103710005F756E68616E646C65645F757365725F1A
:10372000697271207C7C2063757272656E74203DB5
:103730003D2068616E646C657200000031203D3D83
:10374000202875696E747074725F74296C2D3E73D5
:1037500070696E5F6C6F636B000000002F557365BE
:1037600072732F6A656E7961746F6B61727A6865C6
:1037700076736B792F7069636F2F7069636F2D7328
:10378000646B2F7372632F636F6D6D6F6E2F706933
:10379000636F5F73796E632F6D757465782E630048
:1037A000746F74616C0000006D74782D3E636F72ED
:1037B000652E7370696E5F6C6F636B006C6F636B0B
:1037C0005F69735F6F776E65725F69645F76616C66
:1037D0006964286D74782D3E6F776E6572290000DC
:1037E0006D74782D3E656E7465725F636F756E746F
:1037F00000000000706F6F6C2D3E74696D65725F24
:10380000616C61726D5F6E756D203D3D2074696DF8
:1038100065725F616C61726D5F6E756D00000000B6
:103820002F55736572732F6A656E7961746F6B6162
:10383000727A686576736B792F7069636F2F706920
:10384000636F2D73646B2F7372632F636F6D6D6F76
:103850006E2F7069636F5F74696D652F74696D6534
:103860002E63000064656661756C745F616C6172E3
:103870006D5F706F6F6C5F696E697469616C697A96
:103880006564282900000000417474656D707465DA
:103890006420746F20736C65657020696E73696451
:1038A00065206F6620616E20657863657074696F4E
:1038B0006E2068616E646C65723B20757365206272
:1038C0007573795F7761697420696620796F7520F7
:1038D0006D757374000000004861726477617265F1
:1038E00020616C61726D20256420616C7265616479
:1038F0007920636C61696D656400000076636F5FB9
:1039000066726571203E3D205049434F5F504C4CDC
:103910005F56434F5F4D494E5F465245515F485A8F
:103920002026262076636F5F66726571203C3D20FD
:103930005049434F5F504C4C5F56434F5F4D415889
:103940005F465245515F485A000000002F5573658D
:1039500072732F6A656E7961746F6B61727A6865D4
:1039600076736B792F7069636F2F7069636F2D7336
:10397000646B2F7372632F7270325F636F6D6D6F44
:103980006E2F68617264776172655F706C6C2F7006
:103990006C6C2E63000000006662646976203E3D18
:1039A000203136202626206662646976203C3D2040
:1039B0003332300028706F73745F64697631203E53
:1039C0003D203120262620706F73745F6469763144
:1039D000203C3D2037292026262028706F73745FF5
:1039E00064697632203E3D203120262620706F7398
:1039F000745F64697632203C3D2037290000000066
:103A00007265665F66726571203C3D202876636F43
:103A10005F66726571202F20313629006D697373DE
:103A2000696E6720646F75626C652066756E63747D
:103A3000696F6E002A282875696E74385F74202AB1
:103A400029282828766F6964202A29726F6D5F748F
:103A500061626C655F666C6F6174292D3229292063
:103A60002A2034203E3D2053465F5441424C455F5E
:103A700056325F53495A45002F55736572732F6A4A
:103A8000656E7961746F6B61727A686576736B7954
:103A90002F7069636F2F7069636F2D73646B2F7361
:103AA00072632F7270325F636F6D6D6F6E2F70690E
:103AB000636F5F646F75626C652F646F75626C65B0
:103AC0005F696E69745F726F6D5F7270323034302F
:103AD0002E6300002A282875696E74385F74202AC6
:103AE00029726F6D5F7461626C652D3229202A2006
:103AF00034203E3D2053465F5441424C455F563290
:103B00005F53495A450000002F55736572732F6A41
:103B1000656E7961746F6B61727A686576736B79C3
:103B20002F7069636F2F7069636F2D73646B2F73D0
:103B300072632F7270325F636F6D6D6F6E2F70697D
:103B4000636F5F666C6F61742F666C6F61745F6921
:103B50006E69745F726F6D5F7270323034302E63D5
:103B6000000000004465627567000000626F6F74BA
:103B7000325F77323571303830000000322E322E0D
:103B80003000000070696D6F726F6E695F74696EEE
:103B9000793230343000000043617447656E6965E6
:103BA000456D756C61746F72000000004170722089
:103BB0002035203230323600666E692B000000005E
:103BC000666E69006E616E00666E692D0000000011
:103BD0002C2066756E6374696F6E3A2000000000D9
:103BE000617373657274696F6E202225732220667B
:103BF00061696C65643A2066696C652022257322D0
:103C00002C206C696E65202564257325730A0000DD
:103C1000636F6E6E6563745F696E7465726E616CFE
:103C20005F666C6173685F66756E6320262620662A
:103C30006C6173685F657869745F7869705F6675D9
:103C40006E6320262620666C6173685F666C7573F0
:103C5000685F63616368655F66756E632026262012
:103C6000666C6173685F656E7465725F636D645FD7
:103C70007869705F66756E63000000002F5573658C
:103C800072732F6A656E7961746F6B61727A6865A1
:103C900076736B792F7069636F2F7069636F2D7303
:103CA000646B2F7372632F7270325F636F6D6D6F11
:103CB0006E2F68617264776172655F666C617368AC
:103CC0002F666C6173682E6300000000666C617380
:103CD000685F6F666673202B20636F756E74203C7F
:103CE0003D205049434F5F464C4153485F53495A2A
:103CF000455F425954455300636F6E6E6563745F50
:103D0000696E7465726E616C5F666C6173685F6624
:103D1000756E6320262620666C6173685F6578691E
:103D2000745F7869705F66756E6320262620666C06
:103D30006173685F72616E67655F65726173655F0D
:103D400066756E6320262620666C6173685F666CFC
:103D50007573685F63616368655F66756E630000B5
:103D6000636F6E6E6563745F696E7465726E616CAD
:103D70005F666C6173685F66756E632026262066D9
:103D80006C6173685F657869745F7869705F667588
:103D90006E6320262620666C6173685F72616E67B1
:103DA000655F70726F6772616D5F66756E63202606
:103DB0002620666C6173685F666C7573685F63610B
:103DC0006368655F66756E6300000000636F6E6E0A
:103DD0006563745F696E7465726E616C5F666C6159
:103DE00073685F66756E6320262620666C61736853
:103DF0005F657869745F7869705F66756E632026A9
:103E00002620666C6173685F666C7573685F6361BA
:103E10006368655F66756E63000000007364615FD0
:103E200074785F686F6C645F636F756E74203C3D7F
:103E3000206C636E74202D20320000002F557365B6
:103E400072732F6A656E7961746F6B61727A6865DF
:103E500076736B792F7069636F2F7069636F2D7341
:103E6000646B2F7372632F7270325F636F6D6D6F4F
:103E70006E2F68617264776172655F6932632F6962
:103E800032632E63000000006932635F77726974E9
:103E9000655F627974655F72617700006932635FA4
:103EA000726561645F627974655F726177000000BA
:103EB0006972715F7365745F6578636C7573697639
:103EC000655F68616E646C65720000006D75746595
:103ED000785F6578697400006D757465785F656EEC
:103EE0007465725F626C6F636B5F756E74696C0092
:103EF00072756E74696D655F696E69745F6D7574F6
:103F000065780000616C61726D5F706F6F6C5F67E8
:103F100065745F64656661756C740000616C6172E4
:103F20006D5F706F6F6C5F6972715F68616E646CFA
:103F300065720000706C6C5F696E6974000000004F
:103F40005F5F61656162695F646F75626C655F691F
:103F50006E6974005F5F61656162695F666C6F6165
:103F6000745F696E6974000006005250D3F07542A8
:103F7000643B001006005250E182887F6C3B0010C9
:103F800006005250ABB360537C3B00100600525009
:103F9000BBFF3CB6843B001006005250861C030257
:103FA000983B0010060052505422A29DAC3B0010DA
:103FB00005005250DE65F468BC45001000000000AA
:103FC000000000000000F03F00000000000024405E
:103FD00000000000000059400000000000408F4039
:103FE000000000000088C34000000000006AF840A4
:103FF0000000000080842E4100000000D0126341C8
:104000000000000084D797410000000065CDCD413D
:104010000D0A0000666C6173685F646F5F636D64B6
:1040200000000000666C6173685F72616E67655FB7
:1040300070726F6772616D00666C6173685F726148
:104040006E67655F65726173650000006932635F6A
:104050007365745F6261756472617465000000006D
:10406000683F0010743F0010803F00108C3F00102C
:0C407000983F0010A43F0010B03F00106B
:10407C00030002689446EFF3108272B66046006843
:10408C000028FBD0BFF35F8F0420185600280BDBF1
:10409C00002910D0086000201B68BFF35F8F00213F
:1040AC00196082F310887047D0210906097849B24B
:1040BC0019710120F0E70020EEE70000F8B50400CC
:1040CC0015001E000368002B20D0D0231B061B7884
:1040DC005BB21F002368EFF3108172B618680028DA
:1040EC00FCD0BFF35F8F0423E356002B14DB236853
:1040FC00BFF35F8F00221A6081F310882800310013
:10410C0000F0E2F90028E5D000200EE0074B084A49
:10411C000848A62100F0E0F927712368BFF35F8FF0
:10412C0000221A6081F310880120F8BDA837001016
:10413C00D83E00105C37001070B582B00600150038
:10414C001C0001A9FFF794FF002807D1019B5BB26B
:10415C00D0221206127852B2934201D102B070BD35
:10416C002A0023003000FFF7A9FFF7E710B501681C
:10417C00EFF3108372B60A68002AFCD0BFF35F8F8E
:10418C0004228256002A0ADBFF2202710268BFF366
:10419C005F8F0021116083F3108840BF10BD034B6B
:1041AC00034A0448D52100F097F9C046BC370010EB
:1041BC00CC3E00105C370010094B1B78002B08D04C
:1041CC000CE09A00802149055118086805495050A7
:1041DC0001333F2BF5DD024B01221A707047C046AC
:1041EC000C0B00208007002010B5014B984710BD28
:1041FC0081070020002305E09A0004495118496802
:10420C0011500133052BF7D97047C046000002400E
:10421C0010B5002206E093001958044CA4466344E0
:10422C0059600132052AF6D910BDC0460000024083
:10423C0000280AD003231B02054A12685340C022EF
:10424C0092001340034A136070470223F3E7C04601
:10425C000C8001400C900140F0B5D6464F464646C6
:10426C00C0B586B081460A008A464A4480231B04A6
:10427C009A4237D818273B88142630881F4998470C
:10428C0004003B8830881E49984705003B883088DD
:10429C001C49984780463B8830881B499847060044
:1042AC00002C25D0002D23D04346002B20D00028F5
:1042BC001ED0FFF781FF6846FFF79CFFA047A84779
:1042CC008022D823520251464846C047B047FFF7D8
:1042DC008BFF6846FFF79CFF06B0E0BCBA46B146C0
:1042EC00A846F0BD094B0A4A0A48C12100F0F4F86F
:1042FC00094B074A0748C92100F0EEF8494600006F
:10430C00455800005245000046430000CC3C0010CC
:10431C00384000107C3C0010F83C0010F0B5DE4634
:10432C0057464E464546E0B587B081468A46934689
:10433C004A4480231B049A4236D818273B881426FB
:10434C0030881F49984704003B8830881D4998479E
:10435C0005003B8830881C49984780463B8830884C
:10436C001A4998470600002C24D0002D22D0434631
:10437C00002B1FD000281DD0FFF71EFF6846FFF74B
:10438C0039FFA047A8475A4651464846C047B04750
:10439C00FFF72AFF6846FFF73BFF07B0F0BCBB46B0
:1043AC00B246A946A046F0BD094B0A4A0A48E0218C
:1043BC0000F092F8094B074A0748E82100F08CF806
:1043CC00494600004558000052500000464300008A
:1043DC00CC3C0010244000107C3C0010603D0010D0
:1043EC00F0B5D6464F464646C0B586B082460D005F
:1043FC00140018263388142738882C49984781468E
:10440C00338838882A499847804633883888294920
:10441C00984707004B46002B10D04346002B0DD07D
:10442C0000280BD0FFF7C8FE6846FFF7E3FEC8472D
:10443C00C0470020FFF7FCFE210010E01E4B1F4A76
:10444C008A211F48490000F047F8002B07D00029AB
:10445C0005D0C0235B051B6E2B7001390135230081
:10446C000B4314D0C0235B059A6A082313409207B0
:10447C00EBD5002CE9D00A1B0D2AE6D8564630782D
:10448C00C02252051066013C721C9246DDE70120E9
:10449C00FFF7CEFEB847FFF7A7FE6846FFF7B8FE5A
:1044AC0006B0E0BCBA46B146A846F0BD494600008D
:1044BC004558000046430000CC3D0010144000104D
:1044CC007C3C00107047C04601B40248844601BCD5
:1044DC00604700BF110F001001B40248844601BCB4
:1044EC00604700BFF52F001008A36E6A73093302F2
:1044FC00D0000000013C0000B0050020B0050020F9
:10450C00B0050020B0050020B0050020A805002053
:10451C00A8050020B0050020A0050020A005002063
:10452C00A00500209805002098050020900500208B
:10453C00B00500208805002004040F2BFC000000AF
:10454C00041F7E302A00000004040F00000000004D
:10455C000401007800000000047800000000000056
:10456C00040000000001100000000000000000002A
:10457C000000000000000000000000000006002009
:10458C00503300004C330000543300005233000011
:10459C004D5300004D4300005334000043340000E1
:1045AC00004004400000000000000000000000007B
:04000005100001E9FD
:00000001FF
